:020000040800F2
:100000000000022079420008190300081D030008BF
:100010002103000825030008290300080000000050
:100020000000000000000000000000002D03000898
:100030003103000800000000350300083903000800
:10004000C1420008C1420008C1420008C142000884
:10005000C1420008C1420008C1420008C142000874
:10006000C1420008C1420008C1420008C142000864
:10007000C1420008C1420008C1420008C142000854
:10008000C1420008C1420008C1420008C142000844
:10009000C1420008C1420008C1420008C142000834
:1000A000C1420008C1420008C1420008C142000824
:1000B000C1420008C1420008C1420008C142000814
:1000C000C1420008C1420008C1420008C142000804
:1000D000C1420008C1420008C1420008C1420008F4
:1000E000C1420008C14200083D030008C1420008A7
:1000F000C1420008C1420008C1420008C1420008D4
:10010000C1420008C1420008C1420008C1420008C3
:10011000C1420008C1420008C1420008C1420008B3
:10012000C1420008C1420008C1420008C1420008A3
:10013000C1420008C1420008C1420008C142000893
:10014000C1420008C1420008C14200086D03000816
:10015000C1420008C1420008C1420008C142000873
:10016000C1420008C1420008C1420008C142000863
:10017000C1420008C1420008C1420008C142000853
:08018000C1420008C142000861
:1001A0002DE9F041224D234F2DED028B9FED228A48
:1001B000DFED228AA846002621484FF4805101F045
:1001C0001BF84FF4FA732B602B68002BFCD11C48F2
:1001D0004FF4805101F012F84FF4FA73C8F8003070
:1001E0002B68002BFCD1174C3B60B1EEC80AB4EE73
:1001F000400AF1EE10FA16D1013CA0EE288AF4D1A3
:100200003968114804F062F93146104804F05EF98B
:1002100018EE100A02F0E0FF02460B460C480136C9
:1002200004F054F9C8E7B0EE480A04F04BF8E3E7ED
:10023000740A0020780A0020C520803F0AD7233C9A
:10024000000C024040420F00289E00083C9E00081F
:100250004C9E0008184B19481B68194A194970B57B
:10026000A0FB03039B090024013BF026072584B073
:100270005360082081F8236094600121156000F02C
:1002800033FD01254FF47042032302A90E48029268
:100290008DF80D308DF80E408DF80F408DF80C5014
:1002A00000F020FF094B009329460948094A0A4BF0
:1002B00001F0C2F804B070BD10000020D34D6210F0
:1002C00010E000E000ED00E0000C0240140000200F
:1002D0007C0A00207000002014010020054B1A68E1
:1002E00012B11A68013A1A60034A136801331360A5
:1002F000704700BF740A0020780A002082B0044AC8
:100300000190019B13601368002BFCD102B0704771
:10031000740A0020704700BF704700BFFEE700BFAF
:10032000FEE700BFFEE700BFFEE700BF704700BF6B
:10033000704700BF704700BFFFF7D0BF10B5094C32
:10034000A37A4BB1084A136823F00603136000F048
:1003500013F8204602F064F94FF48020BDE8104005
:1003600000F02EBE7C0A002010ED00E0014802F0F3
:100370006DBB00BF7C0A002039493A4BD1F8882078
:10038000394842F47002C1F888201A68002142F00E
:1003900001021A6099601A6822F0847222F4803295
:1003A0001A6058601A6882B022F480221A60D960FC
:1003B000009101911A6842F480321A601A4603E0F3
:1003C000009BB3F5A06F09D0136803F400330193C9
:1003D000009B01330093019B002BF1D0214B1B6844
:1003E00013F4003318BF01230193019B012B05D0A7
:1003F0001B4B4FF000629A6002B07047194B1B49CB
:100400001A6C1B4842F080521A640A6842F4804217
:100410000A609A689A609A6842F400429A609A6800
:1004200042F4A0529A6058601A6842F080721A60D2
:100430001A4611680B4B8901FBD50E4A40F2056143
:1004400011609A6822F003029A609A6842F00202F0
:100450009A601A46936803F00C03082BFAD1C7E799
:1004600000ED00E000380240103000240070004031
:1004700008544007003C02401848836803F00C030E
:10048000042B28D0082B09D0154B144A1549926823
:10049000C2F303128A5CD3400B6170474368416822
:1004A00013F4800F436818BF0F4801F03F020CBFE0
:1004B0000B49B0FBF2F1C3F3881308BFB1FBF2F1B3
:1004C00001FB03F2054B5B68C3F3014301335B009F
:1004D000B2FBF3F3D9E7044BD7E700BF0038024083
:1004E0000024F4000000002040787D0100207047C7
:1004F0000020704701207047002070474FF0FF3008
:10050000704700BF10B50C4648B9204600F0DEF831
:100510000028FAD0207800F089F8012010BD0020D2
:1005200010BD00BF064B186838B101446A469142BD
:1005300094BF19604FF0FF30704702481860F4E72D
:10054000040A0020CC19002010B5084611461446B4
:1005500000F0A2F8204610BD704700BF704700BFF2
:10056000704700BF704700BF704700BF704700BFB3
:10057000704700BF0020704700207047A1B1F0B461
:100580000A4C0B4F014426460025236810F8012B26
:10059000FA540133B3F5006F08BF2B46884233602D
:1005A000F3D10020F0BC704700207047280A0020DB
:1005B000C8110020D9B1F0B40E4A0F4C1668236858
:1005C0000E4D0144002701E088420DD010F8012BA8
:1005D000EA540133802B0ABF0023236027609E4228
:1005E000F2D10220F0BC70470020F0BC7047002020
:1005F000704700BFF0100020041100207010002090
:1006000021280FD1084B1A680A701A68120A4A701A
:100610005A888A70DA78CA701A790A715A794A71D6
:100620009B798B710020704730000020074A1368C7
:1006300010B4591C064CB1F5006FE0540ABF0023FA
:10064000116013605DF8044B704700BF280A00205A
:10065000C81100200378CBB1F0B401460446002352
:1006600014F8012F0133002AFAD1094D094F18441B
:100670002E462B6811F8014BFC540133B3F5006F83
:1006800008BF134681423360F3D1F0BC704700BF0E
:10069000280A0020C811002091B1F0B4094C0A4F7B
:1006A000014426460025236810F8012BFA54013333
:1006B000B3F5006F08BF2B4688423360F3D1F0BC1E
:1006C000704700BF280A0020C8110020094A0A49C3
:1006D0001368096899420AD00849CB5C0370136813
:1006E0000133802B08BF00231360012070470020D6
:1006F000704700BFF010002004110020701000208F
:10070000F0B41C4F1C4D3C682B689C420DD01B491B
:10071000CA5C1AB10A2A01D00D2A09D10133802BF3
:1007200008BF00239C42F3D12C600020F0BC70472E
:100730002B60002303E00A2A0FD00D2A0DD0C254EB
:100740002C683E6801331A19802A04BF00226342D4
:100750009642EAD08A5C002AEDD10022C2542A686F
:1007600005491A447F2A00D9803A18460A60F0BC2D
:10077000704700BF04110020F0100020701000200E
:10078000704700BF12230B80004870474C000020C8
:1007900004230B80004870476000002010B5044C13
:1007A00004480A46214601F005F9204610BD00BF65
:1007B00008110020609E000808B50A4628B10648C6
:1007C000064901F0F7F8054808BD0548034901F05E
:1007D000F1F8024808BD00BF989E000808110020EB
:1007E000749E000808B50A4628B10648064901F07B
:1007F000E1F8054808BD0548034901F0DBF8024867
:1008000008BD00BFCC9E000808110020BC9E000857
:1008100010B5044C04480A46214601F0CBF82046A6
:1008200010BD00BF08110020DC9E000810B5044C6C
:1008300004480A46214601F0BDF8204610BD00BF1D
:1008400008110020E89E0008704700BF704700BFF5
:1008500070B50120284C82B0014600F045FA03260D
:1008600000232046694602224FF4D8558DF8063001
:100870008DF8073000958DF804208DF8056000F0A4
:1008800031FC204608210A2200F0C6FC204609213E
:100890000A2200F0C1FC20460B210A2200F0BCFC19
:1008A00020460A220C2100F0B7FC01254FF480639A
:1008B0006946204600938DF805608DF806508DF846
:1008C000075000F00FFC0A210A46204600F0A4FC65
:1008D00029464FF4804000F037FA2946802000F086
:1008E0000FFA29464FF0805000F05EFA284600F0DB
:1008F00067FB02B070BD00BF0000024000B54FF4BE
:10090000C06083B000F042F801234321032201A814
:100910008DF804108DF805308DF807308DF806201D
:1009200000F03EF803B05DF804FB00BFC0EB001020
:10093000064BC200A3FB0213D21A03EB5202920829
:10094000002301339A42FCD2704700BF254992240C
:10095000074A084B02FB00F0A3FB0023C21A03EB7B
:1009600052029208002301339A42FCD2704700BF22
:10097000C0D401002549922448A1000800000020AD
:10098000040A0020040A0020CC19002040F0BF60B7
:10099000024B40F40030D860704700BF00ED00E02B
:1009A000C3785BB9037818485A09203203F01F0353
:1009B000012101FA03F340F822307047134BF0B4E1
:1009C000D9684578827804780F4EC943C1F3022173
:1009D000C1F10407FFB20F23BD400B411340E9B240
:1009E0000B4304F1604202F561421B01DBB282F865
:1009F00000330378012203F01F015B098A4046F8A7
:100A00002320F0BC704700BF00E100E000ED00E0F3
:100A100021F0604121F07F01014B0843986070474D
:100A200000ED00E0044A136919B923EA00001061DF
:100A3000704718431061704700ED00E0044A1368E6
:100A400004280CBF43F0040323F004031360704731
:100A500010E000E00A4B0B481A68002142F0010246
:100A60001A6099601A6822F0847222F480321A6047
:100A700058601A6822F480221A60D960704700BF5B
:100A80000038024010300024024B00221A70187007
:100A9000704700BF0238024082B000230A4A019327
:100AA00002E0B3F5A06F08D0136813F4003F019B78
:100AB00003F101030193019BF3D0034B1868C0F3CA
:100AC000404002B0704700BF00380240034A13683C
:100AD00023F0F80343EAC00010607047003802407A
:100AE000014B1860704700BF00004742064B0022D0
:100AF00001281A701A7005D0042802D105221A7034
:100B0000704770471870704770380240014B18608A
:100B1000704700BF800E474230B4029C064D40EA49
:100B2000046001435B08013B41EA821242EA034050
:100B3000686030BC704700BF00380240014B18604D
:100B4000704700BF600047420907034B41EA80102D
:100B5000C3F88400704700BF00380240014B1860A2
:100B6000704700BF68004742014B1860704700BFE4
:100B70004C004742034A936823F0EC63194308434F
:100B80009060704700380240034A936823F078432E
:100B9000194308439060704700380240034A936845
:100BA00023F0030318439060704700BF00380240F1
:100BB000024B986800F00C00704700BF00380240FC
:100BC000034A936823F0F00318439060704700BF16
:100BD00000380240034A936823F4E05318439060BE
:100BE000704700BF00380240034A936823F4604313
:100BF00043EAC000906070470038024010B4214CB6
:100C0000A36803F00C03042B1BD0082B1CD01E4B35
:100C100003601C4A1D499468C4F303140C5DE3404F
:100C200043609468C4F382240C5D23FA04F4846066
:100C300092685DF8044BC2F342328A5CD340C360D1
:100C40007047134B0360E4E76368616813F4800F37
:100C5000636818BF0E4C01F03F020CBF0A49B4FB99
:100C6000F2F1C3F3881308BFB1FBF2F101FB03F209
:100C7000044B5B68C3F3014301335B00B2FBF3F346
:100C80000360C6E7003802400024F4008C00002016
:100C900040787D0100F44073B3F5407F09D10849E5
:100CA0008B6820F0704223F4F81322F4407213434F
:100CB0008B60034A136FC0F30B0018431067704733
:100CC00000380240014B1860704700BF3C0E47429D
:100CD000014B1860704700BF400E4742014B18603F
:100CE000704700BF5C014742044A136B19B923EAFD
:100CF00000001063704718431063704700380240CB
:100D0000044A536B19B923EA000050637047184333
:100D10005063704700380240044A936B19B923EAC4
:100D2000000090637047184390637047003802409A
:100D3000044A136C19B923EA000010647047184381
:100D40001064704700380240044A536C19B923EA12
:100D500000005064704718435064704700380240E8
:100D6000044A136919B923EA000010617047184357
:100D70001061704700380240044A536919B923EAE8
:100D800000005061704718435061704700380240BE
:100D9000044A936919B923EA000090617047184327
:100DA0009061704700380240044A136A19B923EA77
:100DB000000010627047184310627047003802400C
:100DC000044A536A19B923EA000050627047184375
:100DD0005062704700380240044A136D19B923EA83
:100DE00000001065704718431065704700380240D6
:100DF000044A536D19B923EA00005065704718433F
:100E00005065704700380240044A936D19B923EACF
:100E100000009065704718439065704700380240A5
:100E2000044A136E19B923EA00001066704718438C
:100E30001066704700380240044A536E19B923EA1D
:100E400000005066704718435066704700380240F3
:100E5000044A137819B923EA000010707047184348
:100E6000107070470D3802404309012B0BD0022B44
:100E7000094B0CBF1A6F5A6F00F01F0322FA03F0E0
:100E800000F001007047044B1A6800F01F0322FABB
:100E900003F000F00100704700380240024A536F2F
:100EA00043F080735367704700380240034BDB68A0
:100EB000184214BF01200020704700BF00380240D4
:100EC000014B1870704700BF0E380240044B0549B3
:100ED00000221A605A609A60DA605961704700BF58
:100EE000003C0140FFFF7F00837933B31C4B027944
:100EF0004179F0B404681E68E7433E401E605D68B7
:100F000002F1804202F59E323D405D6015682C433F
:100F1000146002689C68D5432C409C60D8681029F6
:100F200000EA0500D86013D001F1804303F59E3339
:100F3000F0BC19680A431A6070470379016803F12D
:100F4000804303F59E331A6822EA01021A60704753
:100F5000996811439960D9680A43DA60F0BC704718
:100F6000003C014000230C22427103600371837135
:100F7000704700BF024A136918431061704700BFF1
:100F8000003C0140034B5B69184214BF0120002064
:100F9000704700BF003C0140014B5861704700BFE3
:100FA000003C0140054B1A685B69034004D01042C5
:100FB00014BF01200020704718467047003C0140D4
:100FC000014B5861704700BF003C014008B53C4BE5
:100FD000984224D03B4B98422BD03B4B984232D086
:100FE0003A4B984239D03A4B984240D0394B9842CC
:100FF00047D0394B98424ED0384B984255D0384B59
:10100000984200D008BD4FF480700121FFF7A8FE80
:101010004FF480700021BDE80840FFF7A1BE012019
:101020000146FFF79DFE01200021BDE80840FFF7C3
:1010300097BE02200121FFF793FE02200021BDE8A8
:101040000840FFF78DBE04200121FFF789FE042030
:101050000021BDE80840FFF783BE08200121FFF70B
:101060007FFE08200021BDE80840FFF779BE102070
:101070000121FFF775FE10200021BDE80840FFF7B1
:101080006FBE20200121FFF76BFE20200021BDE86C
:101090000840FFF765BE40200121FFF761FE4020B8
:1010A0000021BDE80840FFF75BBE80200121FFF76B
:1010B00057FE80200021BDE80840FFF751BE00BF69
:1010C000000002400004024000080240000C024000
:1010D000001002400014024000180240001C0240B0
:1010E0000020024000222DE9F0431346D1F800E031
:1010F00001274FF0030C04E00133102B02F1020230
:1011000028D007FA03F404EA0E05A542F4D1D0F87A
:1011100000800E790CFA02F4E44304EA0808C0F8EF
:101120000080D0F8008006FA02F9013E49EA08087A
:10113000012EC0F800800FD9C568CE792C40C4605C
:10114000C56806FA02F401332C43102BC46002F187
:101150000202D6D1BDE8F083D0F8089091F805805E
:101160008E7904EA0909C0F80890D0F8089008FAC6
:1011700002F848EA0908C0F80880D0F8048028EA94
:1011800005054560D0F8048006FA03F5ADB245EADE
:1011900008054560D0E700BF00234FF6FF720260EC
:1011A000037143718371C371704700BF82B04FF404
:1011B00080330193019B0B430193019BC361C16188
:1011C000019BC361C3690193C369019302B0704776
:1011D0000369194214BF012000207047006980B2E2
:1011E000704700BF4369194214BF012000207047B7
:1011F000406980B2704700BF0183704741837047E8
:101200000AB9418370470183704700BF416170474D
:101210004369594041617047CB0800EB830001F0FE
:10122000070110B48900046A0F238B4024EA0303EA
:101230000362036A5DF8044B8A40134303627047FC
:1012400010B5D0F8E43504461B699847032384F8A9
:101250001231002010BD00BF08B50422D0F8E435DB
:1012600080F81221DB689847002008BD08B5D0F847
:10127000E035DB6903B19847002008BD08B5D0F818
:10128000E0351B6A9847002008BD00BF08B5D0F8BC
:10129000E0355B6A9847002008BD00BF002110B50B
:1012A0000B460446402201F0B1FA8021204640223C
:1012B000002301F0ABFA0122D4F8E43584F81221BE
:1012C000A0785B689847002010BD00BF10B582B0C1
:1012D0006946044600F03AF99DF8001001F01F033A
:1012E000012B18D010D3022B07D0204601F080012B
:1012F00001F022FB002002B010BD2046694600F03C
:10130000F3FA002002B010BD2046694600F05AF9F9
:10131000002002B010BD2046694600F0CBFA002044
:1013200002B010BD38B5044629B990F81131022B2E
:101330000CD0002038BDD0F8E0355B69002BF8D028
:1013400090F81221032AF4D19847F2E7D0F834211B
:10135000D0F820319A4210D9C1780129D0F824114F
:10136000A2EB030208BFC918C0F8342108BFC0F8B7
:10137000241192B200F0A2F8DBE7D0F83821B2FBDA
:10138000F3F503FB15255DB9934209D8D0F83C313C
:101390009A4205D22A4600F091F8C4F83C51C8E7B9
:1013A000D4F8E035DB681BB194F81221032A03D08E
:1013B000204600F0B3F8BCE720469847F8E700BFA6
:1013C00010B5044629B990F81131032B0CD0002038
:1013D00010BDD0F8E0359B69002BF8D090F81221B1
:1013E000032AF4D19847F2E7D0F88C23D0F8783369
:1013F0009A4212D9C1780129D0F87C13A2EB0302DA
:1014000004BFC918C0F87C139A42C0F88C2328BFC7
:101410001A4692B200F06AF8D9E7D0F8E0351B69B5
:101420001BB190F81221032A03D0204600F066F881
:10143000CDE79847F9E700BF2DE9F041044616468D
:1014400098460D46069FFFF703FA20462946C4F842
:10145000E085C4F8E475C4F8E86501F08BF9D4F8C8
:10146000E4351B6898472046BDE8F041FFF746BACF
:1014700000207047D0F8E03510B504461B68984747
:10148000D4F8E4359B689847002010BD08B5D0F823
:10149000E0355B689847002008BD00BF38B51346AB
:1014A00002250A46C0F83831C0F8343180F81151AD
:1014B000002101F01DFA002038BD00BF08B5134619
:1014C0000A46002101F014FA002008BD38B5134681
:1014D00003250A46C0F89033C0F88C3380F81151C8
:1014E000002101F0DFF9002038BD00BF08B5134628
:1014F0000A46002101F0D6F9002008BD10B50021F0
:10150000042304460A4680F811310B4601F0F0F935
:10151000204601F041F8002010BD00BF10B50021A9
:10152000052304460A4680F811310B4601F0BAF94A
:10153000204601F031F8002010BD00BF01EB810111
:1015400000EBC100B0F88803704700BF90F8C835C1
:101550000B7090F8C9354B7090F8CB2590F8CA35D0
:1015600003EB02234B8090F8CD2590F8CC3503EBAC
:1015700002238B8090F8CF2590F8CE3503EB022321
:101580009BB20122CB80C0F83C3180F8112170471A
:1015900010B591F90030002B044609DBCB883BB134
:1015A000002101F0C9F92046BDE8104000F0F4BF69
:1015B0002046802101F0C0F92046BDE8104000F02F
:1015C000EBBF00BF70B54B7882B00C460546092BC7
:1015D0000CD8DFE803F032460B590B05700B87126D
:1015E0008B881BB9CB88002B00F08E8028462146C3
:1015F000FFF7CEFF002002B070BD8978AA4E012906
:101600003170F3D890F81231022B00F09880032B40
:10161000ECD1002900F03C8190F81011012900F074
:101620002F81FFF733FF317885F810112846FFF737
:1016300021FF2846FFF762FFDCE790F81231012214
:10164000023B93424FF00301D0D8D0F81431002B65
:1016500057D1954B9A60284694490122FFF71EFF07
:10166000C8E790F81231023B012BBFD84B88012B01
:10167000C0D1D0F8E03500229B68C0F8142198470B
:101680002846FFF73BFFB5E74B88012B00F0F280BF
:10169000022BAFD18B8813F0FF0FABD101691B0A6E
:1016A0004A68013B1046042B00F29580DFE803F006
:1016B000989D8FA7A2004A88130A013B062B95D854
:1016C00001A151F823F000BFAD1700086F17000803
:1016D0005D170008ED150008ED150008ED15000870
:1016E000ED150008CA88012A80D190F81231022B2A
:1016F00021D0032B7FF47AAF00F58871FFF7CEFE7F
:1017000078E7694B9960A6E790F812318E78032B41
:1017100006F07F063FF46AAF80F81361314601F0AE
:1017200055F92846FFF7EAFE002E00F0AD800223AF
:1017300085F812315EE75E49FFF7B0FE5AE70029EF
:1017400000F09E800121032380F8101180F81231EF
:10175000FFF790FE2846FFF7D1FE4BE7D2B2052AED
:101760003FF644AFDFE802F07D746B625950D0F869
:10177000E03580789B6A0DF106019847022343709B
:101780000146C5F8EC05BDF80620002A3FF432AF4B
:10179000E388002B3FF42EAF934228BF13461A462E
:1017A0002846ADF80630FFF779FE23E7D0F8E83594
:1017B00080781B680DF106019847E388402B0146AD
:1017C00003D095F81221012ADDD10822E1E7032395
:1017D00063F3061002464A602846FFF78FFE09E7CA
:1017E000012363F306100246F5E7022363F30610B4
:1017F0000246F0E7052363F306100246EBE70423F5
:1018000063F306100246E6E7D0F8E83580789B6976
:101810000DF1060198470146B5E7D0F8E835807824
:101820005B690DF1060198470146ACE7D0F8E83551
:1018300080781B690DF1060198470146A3E7D0F8AF
:10184000E8358078DB680DF10601984701469AE794
:10185000D0F8E83580789B680DF10601984701467D
:1018600091E7D0F8E83580785B680DF1060198477C
:10187000014688E7D0F8E025C0F81431936898470E
:101880002846FFF73BFEB5E6012385F81231B1E6A5
:10189000022380F8101180F81231FFF7F7FD284677
:1018A000FFF72CFEA6E600BF080A0020100A002061
:1018B0000C0A002038B590F81231032B044603D1EE
:1018C0000B79012B0D4603D9FFF762FE002038BDCE
:1018D000D0F8E0359B689847EB88002BF6D120467E
:1018E000FFF70CFEF2E700BF70B54B788A88012B3A
:1018F0000C460546D6B224D019D3032B15D190F847
:101900001231022B17D0032B3ED14B8823B973061B
:1019100002D0314601F010F8D5F8E03521469B6839
:10192000284698472846FFF7E9FD002070BD90F84B
:101930001231022B14D17206F7D0314600F0FCFFB1
:10194000F3E790F81231022BF5D0032B1CD14B8812
:10195000002BEAD17106E5D0314601F00BF8DBE748
:10196000032B11D1130613D406EB860600EBC60633
:1019700096F87233B3B90D4B0022DA6028460C4951
:101980000222FFF78BFDD0E7FFF702FE002070BDBB
:1019900006F07F0606EB860600EBC60696F81A31BF
:1019A000002BE8D0014B0122DA60E7E7080A0020AB
:1019B000140A002000B3037830B4F3B104460023C6
:1019C00014F8015F0133DBB2002DF9D15B00023363
:1019D000DCB2032513800C704D7004785CB10223D7
:1019E00000255A1CD2B2CC548D5410F8014F02334A
:1019F000DBB2002CF5D130BC704702242346E8E767
:101A000010B5074C2068FF2807D0064B064A9B6894
:101A1000126806499847FF232360002010BD00BFCD
:101A2000CC00002038000020180A0020C01100203F
:101A300043230B8000487047D000002070B51F4C36
:101A40006368052B03F1010202D06260002070BDC3
:101A5000237A0022012B6260F8D0E5682169B5F590
:101A6000006F23D08D4225D015D8AAB2491B6161E1
:101A7000D0F8EC35B3F839308B4211D21D44C91A75
:101A8000E56061610E4901250A448121257200F05B
:101A90002FFF002070BDC5F500616161AAB2E7E7C4
:101AA0000D440026E5608BB26661EBE7E26009B1A8
:101AB0001546DBE700232372C8E700BF180A0020A1
:101AC000C811002001EB810138B500EBC101094DBF
:101AD000094BB1F888131B69044628469847D4F887
:101AE000EC352A46B3F840302046012100F0DAFEFA
:101AF000002038BD801100203800002070B50B7820
:101B000013F060040D46064617D0202C10D1CC8867
:101B1000002C3DD01B0629D4224B234A4D7815605A
:101B20001C60224621490024FFF7D0FC204670BDEE
:101B3000FFF72EFD0224204670BD4B780A2B22D0E1
:101B40000B2B0ED0062BF6D14B881B0A212B03D171
:101B5000CA883A2A28BF3A2230461549FFF79EFC28
:101B6000E9E78B78DBB90F4B9C61E4E7114B4878D0
:101B70009B680E49224698473046EA880B49FFF792
:101B80008DFC0024D7E70C490122FFF787FCD2E740
:101B9000084B48789B68214622469847CBE7FFF7D9
:101BA000F7FCC8E7180A0020CC000020C011002074
:101BB000E200002038000020300A002010B581210A
:101BC000044600F053FE2046012100F04FFE822122
:101BD000204600F04BFE024B5B689847002010BD8A
:101BE00038000020D0F8EC2538B5044681210223C6
:101BF000B2F8392000F00AFED4F8EC352046B3F8EC
:101C000040200121022300F001FE2046822108220B
:101C1000032300F0FBFD094B094A0221002519713D
:101C20005D7113689847D4F8EC35064AB3F8403034
:101C30002046012100F036FE284638BD4C00002029
:101C4000380000208011002038B512490B7A012B92
:101C500001D0002038BD4C69CCB1D0F8EC35CA6851
:101C6000B3F839309C420CD813190025CB6092B2DE
:101C700023464D6108490A44812100F039FE0020C5
:101C800038BD9D18E41A4C61CD6092B2F2E70C7237
:101C9000002038BD180A0020C811002030B50546C4
:101CA00083B0002303200193FEF740FE2B68134C02
:101CB0001A69019206E0FEF739FE2B68013C1A69A9
:101CC000019218D0019A002A4FF00300F3DA01992B
:101CD0000A4A41F0010101910199196119690191C3
:101CE00003E019690191013A02D00199C907F8D4BA
:101CF0000320FEF71BFE002003B030BD400D0300A3
:101D000030B4C4786CB900EB820003339B10D0F878
:101D1000D05006D02246013251F8040B286093427D
:101D2000F9D1002030BC70470332921030B4D0F8A3
:101D3000D05009D00846002301332C6840F8044BEA
:101D40009A42F9D101EB8201084630BC704700BFCE
:101D50002DE9F041012440230022A14284708380B8
:101D6000C2705CD0002944D04178C2604FF4006357
:101D700003610678002969D04FF460674FF48868E2
:101D80004FF4806C02F5106303EB411E00F1140464
:101D900000F1500144F8043F03F50075203373450A
:101DA00041F8045FF6D1C0F814C0C0F8CC80DEB1B1
:101DB00006F1230400EB840400F18C0102F5A0631A
:101DC00041F8043FA14203F12003F9D106F13301A8
:101DD00000EB810102F5805200F1CC0343F8042F9F
:101DE0008B4202F58052F9D1C0F80C710020BDE899
:101DF000F0814FF4A063194CC3804FF0060E0C26FF
:101E0000174FDFF86C80DFF86CC0164BC1722246AA
:101E1000067080F801E07146C4600361B2E74FF0DC
:101E2000040E4FF4A072022308264FF0A044C172A2
:101E3000C2800372067080F801E0714622460A4FA4
:101E4000DFF83480DFF834C0084BE5E70A464FF48A
:101E500060674FF488684FF4806CA4E7000004408A
:101E6000000E044000080440000E0050000800501E
:101E700040040440000404404004005000040050AA
:101E800038B5037A012B04464FF000052FD050F8E7
:101E90000C2FD36843F04003D360FFF7FFFE237A93
:101EA000627A032B14BF4FF434134FF43C130AB17E
:101EB00043F48013E26814209363FEF749FDE3685E
:101EC000217ADA68032908BF42F48032DA60227A84
:101ED000032A37D0E378012B07D1E3689D680522F8
:101EE00062F3440545F020059D60002038BDC268BE
:101EF000417A936B65F3104309B143F48013936304
:101F0000D36823F4800323F0500343F010036FF3EE
:101F1000C3036FF3C7136FF351436FF3D343D3601E
:101F200004F10C00FFF7BAFEE378012BDDD10523A5
:101F300063F34405E36845F020059D60E378012BD9
:101F4000CBD0D2E71D6B012262F39B656FF3D755AF
:101F50002D2245F0805562F316451D63C820FEF71B
:101F6000F7FCE36845F400051D63C820FEF7F0FCAC
:101F7000B0E700BFC268936843F00103936000209C
:101F8000704700BFC268936823F00103936000208C
:101F9000704700BF00B583B000230193019A104B36
:101FA00042F020020192019A01F01F0122F4F8622E
:101FB00042EA81120192C168019A0A610A6901929A
:101FC00003E00A690192013B02D0019A9206F8D41B
:101FD0000320FEF7ABFC002003B05DF804FB00BF5C
:101FE000400D030000B583B000230193019A0C4B10
:101FF00042F010020192C168019A0A610A690192D5
:1020000003E00A690192013B02D0019AD206F8D49A
:102010000320FEF78BFC002003B05DF804FB00BF3B
:10202000400D0300C26808B5D36801296FF35D73E2
:102030006FF39E7308D009B943F08043D360322018
:10204000FEF786FC002008BD43F00053F6E700BF12
:10205000C368586900F00100704700BFC368586941
:1020600000F0010080F00100704700BFC3685869AC
:1020700000F00100704700BFC3685A6998691040BA
:10208000704700BFC3685868704700BF0269136893
:1020900061F301031360704710B4C2680C4C002355
:1020A0004FF0FF3193615161516051619461C0788B
:1020B00091695DF8044B984208BF102343F47013F4
:1020C00043F4605343F008030B43002093617047CF
:1020D00000080080F8B5D0F80C31016900221A60C0
:1020E0000B6862F3CC230B600446C07A012849D008
:1020F00010212046FFF74EFF2046FFF773FF2569AA
:1021000000224FF0FF332A616A61AB61EA616378B4
:102110003BB3174604F11401FF2651F8043F186839
:102120000028ACBF00204FF0904018601F619E60F7
:10213000637801329342F0D89BB10022174604F134
:102140005001FF2651F8043F18680028ACBF00205A
:102150004FF0904018601F619E6063780132934297
:10216000F0D82B6943F480732B61E378012B04D101
:10217000144B402262F359432B632046FFF78CFF38
:102180000020F8BD0E68E0681346C022802562F387
:102190000F034FF4800265F31F4346F0030665F317
:1021A0000F024FF4A0770E6045628262C0F80431DE
:1021B00067F30F036FF31F43C0F80831C0F80C3109
:1021C00096E700BF0301010003699B68C3F3410365
:1021D000022B07D0032B03D0012B01D00320704723
:1021E0000220704701207047036981699A68086876
:1021F000C2F34102022A06BF032262F30A006FF310
:102200000A0008605A6842F480725A6000207047E1
:1022100070B44B78012B4FF000041FD00D7800EB09
:1022200085020123AB40526D63F31F4413681D0404
:102230000DD48E68CD78C98866F30A0365F393439D
:1022400061F3995343F0805343F4004313600269F0
:10225000D36923430020D36170BC70470A7800EB38
:102260008205934063F30F04AA69DFE730B44B782B
:102270000022012B144612D00B7800EB83050121BC
:1022800099406D6D61F31F4401696FF3CF322A608D
:10229000CB6923EA04030020CB6130BC7047097886
:1022A00000EB81058B4063F30F04AD69ECE700BFE1
:1022B000F0B54A780B78012A3BD000EB83034A69DA
:1022C0005D6D8E682B682C69DAB13244013AB2FB3D
:1022D000F6F2C2F3090762F3DC4406FB07F666F385
:1022E00012042C61C278012A14D0CA78012A1AD0AB
:1022F0000A7800EB820043F00443426D1360002033
:10230000F0BD012266F3120462F3DC442C61C27852
:10231000012AEAD10A780C6900EB8202526D5461FD
:10232000CA78012AE4D14A79002A4FD043F00053F9
:10233000DEE700EB83034D699E6933683469002D45
:102340003FD08F6891F803E065F31204EA19013A6F
:10235000BEF1010FB2FBF7F262F3DC4408BF6EF38B
:102360005E743461C278012A3AD0CA78012A30D02A
:102370004DB106690F78746B0122BA402243726333
:10238000CA78012A25D00A7800EB820243F0044380
:1023900092691360CB78012BB1D1C278CC680978EF
:1023A000002AACD1ABB200EB810003339B10D0F814
:1023B000D000A4D0013254F8041B01609342F9D13B
:1023C0009DE765F3120462F3DC44CAE743F08053EF
:1023D0008EE702699268D20509D443F00053D2E730
:1023E0000A780C6900EB820292695461C8E743F0F5
:1023F0008053C8E7F0B44A78012A82B041D00B7804
:102400004C6900EB83035A6D136815690095F4B1AC
:102410008E689DF800509DF802404E61012767F3D9
:10242000C40466F306058DF800508DF80240009C48
:102430001461C278012A1DD00A7800EB820043F0B3
:102440000443426D1360002002B0F0BC70478F68F7
:102450009DF800509DF80240012666F3C40467F31E
:1024600006058DF800508DF80240009C1461C2787A
:10247000012AE1D10A780C6900EB8202526D5461A5
:10248000DAE784694D6923682669009635B38A685E
:10249000954237D99DF800504A6162F306058DF8E0
:1024A00000509DF80220012565F3C4028DF802203A
:1024B000009A2261C278012A1DD043F004432360B0
:1024C000C378002BBFD14B69002BBCD000690978C1
:1024D000426B01238B4013434363B4E79DF80070C4
:1024E0009DF8026065F3060762F3C4068DF800707C
:1024F0008DF80260DCE70A780D6900EB82029269D0
:102500005561DAE79DF8002065F306028DF800209A
:10251000C7E700BF4B78012B0B7800EB830006D098
:10252000426D136843F40013136000207047826902
:102530001368002BF6DA43F0804343F40013136072
:10254000002070474B78CA78012B0B7800EB830092
:10255000A2F102020CBF8069406D0368012A6FF38B
:10256000555398BF43F0805303600020704700BF6D
:1025700002699369D0691840000C704700EB810133
:1025800002694B6D9B6850691840704703699869F0
:10259000DB69184080B2704710B4012383B04FF05C
:1025A000000263F3C402C024002318210093436D8A
:1025B0008DF802208DF803408DF80010009A1A6102
:1025C000C278012A06D100F5B96058614FF0802227
:1025D00019681A6003B05DF8044B7047D0F81431E5
:1025E000EBB103699A68D20719D510B5827A42B166
:1025F000D0F80C21D0F80C116FF341026FF30002F8
:102600000A605A68044642F001025A600520FEF74B
:102610009FF92269536823F00103536010BD70478E
:10262000837A63B103699B68DB0708D5D0F80C3166
:10263000D0F80C216FF341036FF300031360704770
:1026400070B543780122064680F8122173B1143028
:1026500006F150010023FF2251F8044F50F8045FA7
:10266000AA60A260747801339C42F5D833690022D5
:102670004FF0FF311A6130465A61DA619961FFF714
:10268000B1FC30461021BDE87040FFF783BC00BFAD
:102690004B78012B0B7800EB830010D0436D1B6847
:1026A000C3F307439A0607D413F0020F14BF4FF485
:1026B00000504FF4405070474FF48050704783698A
:1026C0001B68C3F30743990605D413F0020F14BF28
:1026D0002020302070471020704700BFF0B44C78A5
:1026E000012C0D4615D0097800EB8101B2F5805F11
:1026F0004E6D33681F4619D0B2F5005F13D0B2F5A6
:10270000405F1ED012B962F3CF373B463360F0BC56
:1027100070470C7800EB8404102AA66933681F46C2
:1027200024D0202A05D143F00063EFE743F40013DF
:10273000ECE7302AE6D1990213D500206871A1692F
:1027400004E09A020DD500206871496DEB780A68A3
:10275000023B60F35552012B98BF42F080520A6051
:10276000D5E743F0044343F40043CFE7F0BCFFF761
:10277000D1BE00BFF8B50646FFF7EAFA7478012526
:10278000002186F8125186F8131164B308463346C7
:102790003246402782F81811A2F81E110131A142D9
:1027A00082F8195182F81B01C2F82071C2F8240185
:1027B000C2F82C0102F12802ECD10022114640207F
:1027C00083F87023A3F876230132A24283F87113B1
:1027D00083F87313C3F87803C3F87C13C3F8841326
:1027E00003F12803ECD13046FFF7CCFB3046FFF76E
:1027F00047FB30460021FFF715FC3046FFF76AFC27
:102800003046BDE8F840FFF7B5BB00BFF8B50C0691
:1028100017D401EB8104E4000519002704F55C746A
:1028200085F8701385F871730119C5F8782385F858
:102830007333022B04BF00230B71FFF7E9FC002068
:10284000F8BD01F07F0505EB8504E400071904F5E8
:102850008C71012487F81851014487F81941C7F891
:10286000202187F81B31A7F81E51E2E7CAB208B54C
:1028700013060DD401EB810300EBC30303F55C7376
:10288000D20919705A701946FFF7F0FC002008BDF4
:1028900001F07F0101EB810300EBC30303F58C73AF
:1028A000EEE700BFF8B501F07F0606EB8604E40012
:1028B00005190021C5F8881385F8711385F8706330
:1028C000C5F87C23C5F88433C378012B04F55C7408
:1028D00008BFF6B200EB040108BFC5F880231EB1A3
:1028E000FFF7E6FC0020F8BDFFF784FD0020F8BDEF
:1028F000F8B501F07F0606EB8604E40005190146F1
:1029000004F58C744FF0010E002785F81861C5F8A6
:102910002421C5F82821C5F82C31214485F819E176
:10292000C5F830711EB1FFF7C3FC0020F8BDFFF7FA
:1029300061FD0020F8BD00BFCAB2130610B50FD468
:1029400001EB810300EBC30303F55C73D20901249F
:1029500019705A709C701946FFF7DCFD002010BDFD
:1029600001F07F0101EB810300EBC30303F58C73DE
:10297000ECE700BFCAB2130610B50FD401EB810318
:1029800000EBC30303F55C73D209002419705A707D
:102990009C701946FFF7D6FD204610BD01F07F015F
:1029A00001EB810300EBC30303F58C73ECE700BF7D
:1029B00008B50B0603D4FFF715FB002008BD01F096
:1029C0007F01FFF7E7FA002008BD00BF0269002081
:1029D000136861F30A100343136070470269536878
:1029E0006FF3410353600320FDF7B2BF02695368E0
:1029F00043F0020353600320FDF7AABF0B0607D480
:102A000001EB810100EBC10101F55C71FFF740BEF4
:102A100001F07F0101EB810100EBC10101F58C7137
:102A2000FFF736BE0B0607D401EB810100EBC101B5
:102A300001F55C71FFF752BE01F07F0101EB8101EE
:102A400000EBC10101F58C71FFF748BE2DE9F84F8D
:102A50000446FFF703FB10B90020BDE8F88F2046BD
:102A6000FFF70AFB07460028F6D0C0F3074808F036
:102A7000080303F0FF00002B40F0918018F0040FD2
:102A800023D1FDB2AA0702D5E36802225A61002FC2
:102A9000C0F28F81C7F30726330700F16A812A0746
:102AA00000F15D81EB0600F13481F50600F1F08064
:102AB000B10600F1D480C7F30747FA0600F1C480DD
:102AC000BB0600F1B680BDE8F88F2046FFF75EFD3B
:102AD0000646002861D004F1180A25464FF0000987
:102AE0002EE05A0703D5DAF8002004239360180774
:102AF00003D5DAF8002008239360D90603D5DAF865
:102B00000020102393609A0603D5DAF800202023D2
:102B10009360580603D5DAF80020402393609907A4
:102B200003D5DAF8002002239360DB0940F08681A8
:102B3000760809F101090AF1040A05F128052CD0EB
:102B4000F307F5D521695FFA89FB08694B6B04EB44
:102B50008B0223FA0BF39269DB01DBB29268034329
:102B60001340DBB2D807BCD5B24A4B6BDAF800E0B1
:102B70001268012000FA09FC23EA0C034B63536836
:102B8000CEF8080059462046984794F80380B8F1DB
:102B9000010F00F097810123A3E7012071E7204690
:102BA000FFF7E6FC0546002841D004F15406A24692
:102BB0004FF0000B07E06D080BF1010B06F1040666
:102BC0000AF1280A33D0E907F5D55FFA8BF94946AF
:102BD0002046FFF7D3FCC0B2C20713D533680120EB
:102BE0009860E278824200F08981924B1B684946E6
:102BF0001B682046984794F80390B9F1010F00F044
:102C00006F810120830702D5336802209860410755
:102C100002D53368042098600207CCD5854B1B6829
:102C200020469B689847336808209860C3E70120D6
:102C300024E7804B1B6820461B6A9847E3684FF4E3
:102C400000125A6101203EE77A4B1B682046DB697F
:102C50009847E3684FF480125A61012030E720461C
:102C6000FFF7C2FAE3682046DD68FFF7ADFA0328F4
:102C700000F0D780012140220523A170A28063F3D8
:102C80008D25E3684FF40052DD6001205A6112E7A0
:102C9000226953684FF0000823F001035360414656
:102CA0002046FFF777F9637893B104F1140004F13B
:102CB00050014346FF22A64651F8045F50F8044FE6
:102CC000A260AA609EF801500133AB42F4D374466F
:102CD0000125236965F30F080F214FF0FF302F22E4
:102CE00065F31F489861C3F81C8059611A611A681E
:102CF0006FF30A121A602046FFF74EFC4D4BE26854
:102D00001B684FF480511B69516120469847284643
:102D1000CEE6E3689A6922F010029A611D6AC5F353
:102D20004342022A05F00F085ED0062A11D108EBB3
:102D3000880804EBC808204604F5B9610822FEF7AC
:102D4000F3FFD8F88833C5F30A151D44C8F8885333
:102D5000E3689A6942F010029A610120A5E6354BBA
:102D60001B682046DB689847E36808225A61012007
:102D700098E6304B1B6820465B6998472269E368F8
:102D800091684FF400625A61A37A83B1C9070ED5E6
:102D9000D4F80C3128491A6842F001021A601A6806
:102DA00042F003021A600B6943F006030B61012035
:102DB00075E6A37A43B1D4F80C31D4F80C216FF343
:102DC00041036FF30003136022691A4953680968CD
:102DD00023F00103536020468B699847E3684FF066
:102DE00000425A61012055E647F6F0722A40002A57
:102DF000AFD008EB880804EBC808C5F30A152A46CB
:102E0000D8F87C132046FEF78FFFD8F87C23D8F83B
:102E100088332A442B44C8F87C23C8F88833E368F5
:102E200097E700214FF400720923A170A28063F399
:102E30008D2526E79C00002000ED00E0D5F82C0150
:102E4000D5F830C1D5F82021DAF800E0CCEB000845
:102E50009045DEF81830414628BF114603319BB239
:102E6000B3EB910F2AD9604528D938B3D5F824118E
:102E700007E0D5F82C3193421FD9C2EB0308D5F8EF
:102E80002021904528BF90461FFA88F35A462046D5
:102E9000FEF736FFD5F82411D5F8302141444244DD
:102EA000C5F82411C5F83021DAF80000836908F16B
:102EB00003089BB2B3EB980FDBD886468023CEF88D
:102EC000083035E6B9F1000F7FF465AE94F81131A2
:102ED000042B7FF460AE2046FFF75EFB434600E61E
:102EE000BBF1000F7FF48DAE94F81131052B7FF408
:102EF00088AE2046FFF750FB484683E61A69DAF8A9
:102F00007833C2F312029B1ACAF888336DE600BF09
:102F100081F0004102E000BF83F0004330B54FEA8A
:102F200041044FEA430594EA050F08BF90EA020FF7
:102F30001FBF54EA000C55EA020C7FEA645C7FEA8A
:102F4000655C00F0E2804FEA5454D4EB5555B8BFAD
:102F50006D420CDD2C4480EA020281EA030382EA1E
:102F6000000083EA010180EA020281EA0303362DB0
:102F700088BF30BD11F0004F4FEA01314FF4801C83
:102F80004CEA113102D0404261EB410113F0004F95
:102F90004FEA03334CEA133302D0524263EB43034C
:102FA00094EA050F00F0A780A4F10104D5F1200EEA
:102FB0000DDB02FA0EFC22FA05F2801841F1000145
:102FC00003FA0EF2801843FA05F359410EE0A5F119
:102FD00020050EF1200E012A03FA0EFC28BF4CF04A
:102FE000020C43FA05F3C01851EBE37101F0004500
:102FF00007D54FF0000EDCF1000C7EEB00006EEB0D
:103000000101B1F5801F1BD3B1F5001F0CD3490896
:103010005FEA30004FEA3C0C04F101044FEA4452ED
:1030200012F5800F80F09A80BCF1004F08BF5FEA74
:10303000500C50F1000041EB045141EA050130BD54
:103040005FEA4C0C404141EB010111F4801FA4F1F7
:103050000104E9D191F0000F04BF01460020B1FA4C
:1030600081F308BF2033A3F10B03B3F120020CDA84
:103070000C3208DD02F1140CC2F10C0201FA0CF062
:1030800021FA02F10CE002F11402D8BFC2F1200CC7
:1030900001FA02F120FA0CFCDCBF41EA0C0190407D
:1030A000E41AA2BF01EB0451294330BD6FEA0404C6
:1030B0001F3C1CDA0C340EDC04F11404C4F12002B1
:1030C00020FA04F001FA02F340EA030021FA04F3C3
:1030D00045EA030130BDC4F10C04C4F1200220FA1A
:1030E00002F001FA04F340EA0300294630BD21FA58
:1030F00004F0294630BD94F0000F83F4801306BF1E
:1031000081F480110134013D4EE77FEA645C18BF11
:103110007FEA655C29D094EA050F08BF90EA020FA8
:1031200005D054EA000C04BF1946104630BD91EAA0
:10313000030F1EBF0021002030BD5FEA545C05D1A3
:103140004000494128BF41F0004130BD14F58004E2
:103150003CBF01F5801130BD01F0004545F0FE4156
:1031600041F470014FF0000030BD7FEA645C1ABF8B
:10317000194610467FEA655C1CBF0B46024650EAC2
:10318000013406BF52EA033591EA030F41F40021EE
:1031900030BD00BF90F0000F04BF0021704730B574
:1031A0004FF4806404F132044FF000054FF0000149
:1031B00050E700BF90F0000F04BF0021704730B50A
:1031C0004FF4806404F1320410F0004548BF4042DF
:1031D0004FF000013EE700BF42004FEAE2014FEA34
:1031E00031014FEA02701FBF12F07F4393F07F4F0F
:1031F00081F06051704792F0000F14BF93F07F4F41
:10320000704730B54FF4607401F0004521F0004183
:1032100020E700BF50EA010208BF704730B54FF009
:1032200000050AE050EA010208BF704730B511F00E
:10323000004502D5404261EB41014FF4806404F146
:1032400032045FEA915C3FF4DCAE4FF003025FEAC8
:10325000DC0C18BF03325FEADC0C18BF033202EB50
:10326000DC02C2F1200300FA03FC20FA02F001FAAA
:1032700003FE40EA0E0021FA02F11444C1E600BF49
:1032800070B54FF0FF0C4CF4E06C1CEA11541DBFFC
:103290001CEA135594EA0C0F95EA0C0F00F0DEF8C7
:1032A0002C4481EA030621EA4C5123EA4C5350EAAC
:1032B000013518BF52EA033541F4801143F48013FD
:1032C00038D0A0FB02CE4FF00005E1FB02E506F08E
:1032D0000042E0FB03E54FF00006E1FB03569CF0E3
:1032E000000F18BF4EF0010EA4F1FF04B6F5007FE9
:1032F00064F5407404D25FEA4E0E6D4146EB06065B
:1033000042EAC62141EA55514FEAC52040EA5E50E3
:103310004FEACE2EB4F1FD0C88BFBCF5E06F1ED88D
:10332000BEF1004F08BF5FEA500E50F1000041EBC4
:10333000045170BD06F0004646EA010140EA020071
:1033400081EA0301B4EB5C04C2BFD4EB0C0541EA93
:10335000045170BD41F480114FF0000E013C00F3A8
:10336000AB8014F1360FDEBF002001F0004170BDCC
:10337000C4F10004203C35DA0C341BDC04F11404E5
:10338000C4F1200500FA05F320FA04F001FA05F271
:1033900040EA020001F0004221F0004110EBD3703E
:1033A00021FA04F642EB06015EEA430E08BF20EA6A
:1033B000D37070BDC4F10C04C4F1200500FA04F30D
:1033C00020FA05F001FA04F240EA020001F000419F
:1033D00010EBD37041F100015EEA430E08BF20EA12
:1033E000D37070BDC4F1200500FA05F24EEA020E5A
:1033F00020FA04F301FA05F243EA020321FA04F089
:1034000001F0004121FA04F220EA020000EBD3703F
:103410005EEA430E08BF20EAD37070BD94F0000F3F
:103420000FD101F00046400041EB010111F4801F73
:1034300008BF013CF7D041EA060195F0000F18BF24
:10344000704703F00046520043EB030313F4801F60
:1034500008BF013DF7D043EA0603704794EA0C0F1A
:103460000CEA135518BF95EA0C0F0CD050EA410630
:1034700018BF52EA4306D1D181EA030101F00041AD
:103480004FF0000070BD50EA410606BF10461946D5
:1034900052EA430619D094EA0C0F02D150EA0136E1
:1034A00013D195EA0C0F05D152EA03361CBF104622
:1034B00019460AD181EA030101F0004141F0FE41C1
:1034C00041F470014FF0000070BD41F0FE4141F445
:1034D000780170BD70B54FF0FF0C4CF4E06C1CEA45
:1034E00011541DBF1CEA135594EA0C0F95EA0C0FFA
:1034F00000F0A7F8A4EB050481EA030E52EA0335B5
:103500004FEA013100F088804FEA03334FF08055D5
:1035100045EA131343EA12634FEA022245EA111502
:1035200045EA10654FEA00260EF000419D4208BFB3
:10353000964244F1FD0404F5407402D25B084FEA60
:103540003202B61A65EB03055B084FEA32024FF40C
:1035500080104FF4002CB6EB020E75EB030E22BF69
:10356000B61A754640EA0C005B084FEA3202B6EB29
:10357000020E75EB030E22BFB61A754640EA5C00D8
:103580005B084FEA3202B6EB020E75EB030E22BF68
:10359000B61A754640EA9C005B084FEA3202B6EB69
:1035A000020E75EB030E22BFB61A754640EADC0028
:1035B00055EA060E18D04FEA051545EA16754FEA8A
:1035C00006164FEAC30343EA52734FEAC2025FEAA8
:1035D0001C1CC0D111F4801F0BD141EA00014FF037
:1035E00000004FF0004CB6E711F4801F04BF014308
:1035F0000020B4F1FD0C88BFBCF5E06F3FF6AFAE24
:10360000B5EB030C04BFB6EB020C5FEA500C50F1B3
:10361000000041EB045170BD0EF0004E4EEA113136
:1036200014EB5C04C2BFD4EB0C0541EA045170BD3D
:1036300041F480114FF0000E013C90E645EA060E81
:103640008DE60CEA135594EA0C0F08BF95EA0C0FAF
:103650003FF43BAF94EA0C0F0AD150EA01347FF4F7
:1036600034AF95EA0C0F7FF425AF104619462CE7CE
:1036700095EA0C0F06D152EA03353FF4FDAE104631
:10368000194622E750EA410618BF52EA43067FF482
:10369000C5AE50EA41047FF40DAF52EA43057FF412
:1036A000EBAE12E74FEA4102B2F1E04324BFB3F5BB
:1036B000001CDCF1FE5C0DD901F0004C4FEAC002A9
:1036C0004CEA5070B2F1004F40EB830008BF20F08D
:1036D0000100704711F0804F21D113F13872BCBF47
:1036E00001F00040704741F480114FEA5252C2F19C
:1036F0001802C2F1200C10FA0CF320FA02F018BFE5
:1037000040F001004FEAC1234FEAD32303FA0CFC37
:1037100040EA0C0023FA02F34FEA4303CCE77FEAC6
:10372000625307D150EA01331EBF4FF0FE4040F410
:103730004000704701F0004040F0FE4040F40000BF
:10374000704700BF844641EA000313F003036DD1C4
:10375000403A41D351F8043B40F8043B51F8043B54
:1037600040F8043B51F8043B40F8043B51F8043B5B
:1037700040F8043B51F8043B40F8043B51F8043B4B
:1037800040F8043B51F8043B40F8043B51F8043B3B
:1037900040F8043B51F8043B40F8043B51F8043B2B
:1037A00040F8043B51F8043B40F8043B51F8043B1B
:1037B00040F8043B51F8043B40F8043B51F8043B0B
:1037C00040F8043B51F8043B40F8043B51F8043BFB
:1037D00040F8043B403ABDD2303211D351F8043B9B
:1037E00040F8043B51F8043B40F8043B51F8043BDB
:1037F00040F8043B51F8043B40F8043B103AEDD24A
:103800000C3205D351F8043B40F8043B043AF9D29A
:10381000043208D0D2071CBF11F8013B00F8013B6D
:1038200001D30B8803806046704700BF082A13D37A
:103830008B078DD010F003038AD0C3F10403D21A92
:10384000DB071CBF11F8013B00F8013B80D331F8C6
:10385000023B20F8023B7BE7043AD9D3013A11F846
:10386000013B00F8013BF9D20B7803704B784370B1
:103870008B788370604670470000000000000000F5
:10388000A2EB0300704700BF02780B78012A28BF23
:103890009A42F5D16DE9044540EA0104CDE9026799
:1038A0006FF0000C4FEA447212B380EA010414F086
:1038B000070F6AD100F0070420F0070004F00305A9
:1038C00021F007014FEAC505F0E8042314F0040FC6
:1038D000F1E804670CFA05F462EA040266EA0406F9
:1038E0000AD063EA0403624667EA0407664603E017
:1038F000F0E80423F1E8046782FA4CF582EA060452
:10390000A4FA8CF46CBB83FA4CF583EA0705A5FA9C
:103910008CF595B950E9022351E9026782FA4CF51A
:1039200082EA0604A4FA8CF483FA4CF583EA0705CC
:10393000A5FA8CF52543DBD09CB92DBAB5FA85F4F0
:1039400024F0070427FA04F1DDE9026723FA04F3FF
:1039500003F0FF0001F0FF01FDE80445A0EB0100CA
:10396000704724BAB4FA84F424F0070426FA04F168
:10397000DDE9026722FA04F202F0FF0001F0FF0124
:10398000FDE80445A0EB0100704714F0030F3CD1A3
:1039900010F0030428D150F8082B51F8083B82FAA4
:1039A0004CF582EA0305A5FA8CF55DB950F8042CB4
:1039B00051F8043C82FA4CF582EA0305A5FA8CF52D
:1039C000002DE8D02DBAB5FA85F424F0070423FAC7
:1039D00004F122FA04F202F0FF0001F0FF01FDE819
:1039E0000445A0EB010070474FEAC40420F0030037
:1039F00050F8082B21F0030151F8083B0CFA04F4AD
:103A000062EA040263EA0403C9E710F003041AD06F
:103A1000A1EB040120F00300E40750F8042B06D0CA
:103A20000FD28B785FFAA2F4E41A06D12BB1CB78CF
:103A30005FFAB2F4E41A00D11BB920465DF8104BCE
:103A4000704701F1040150F8042BCC0721F0030169
:103A500051F8043B48D824D222F07F4482FA4CF536
:103A600094EA1325A5FA8CF50AD165B951F8043BFF
:103A700084EA0204B4EB036F0ED150F8042BEBE799
:103A80004FEA132355E035F07F454DD10878FDE826
:103A90000445C0F1000070474FEA126203F0FF03D3
:103AA00047E002EA1C4482FA4CF594EA1345A5FA71
:103AB0008CF50AD165B951F8043B84EA0204B4EBF1
:103AC000034F0CD150F8042BEBE74FEA134330E0DF
:103AD00015EA1C4528D10B884FEA124229E04FEA2B
:103AE000124203EA1C4324E002F0FF0482FA4CF580
:103AF00094EA1365A5FA8CF50AD165B951F8043B2F
:103B000084EA0204B4EB032F09D150F8042BEBE74D
:103B10004FEA13630DE015F0FF0F05D10B684FEA74
:103B2000122223F07F4304E04FF00000FDE804453B
:103B3000704712BA1BBA82FA4CF482EA0304A4FA60
:103B40008CF5B5FA85F402FA04F203FA04F34FEAAD
:103B50001260FDE80445A0EB13607047AFF30080EE
:103B60004FF0FF3C06E000BF4FF0010C02E000BF49
:103B70004FF0010C4DF804CD4FEA410C7FEA6C5C2C
:103B80004FEA430C18BF7FEA6C5C1BD001B050EACF
:103B9000410C0CBF52EA430C91EA030F02BF90EABA
:103BA000020F0020704710F1000F91EA030F58BF79
:103BB000994208BF90422CBFD8176FEAE37040F0DB
:103BC000010070474FEA410C7FEA6C5C02D150EA79
:103BD000013C07D14FEA430C7FEA6C5CD6D152EA34
:103BE000033CD3D05DF8040B704700BF84461046F9
:103BF00062468C461946634600E000BF01B5FFF7F8
:103C0000B7FF002848BF10F1000F01BD4DF808EDC7
:103C1000FFF7F4FF0CBF012000205DF808FB00BF98
:103C20004DF808EDFFF7EAFF34BF012000205DF8F2
:103C300008FB00BF4DF808EDFFF7E0FF94BF01203F
:103C400000205DF808FB00BF4DF808EDFFF7CEFF40
:103C500094BF012000205DF808FB00BF4DF808ED7F
:103C6000FFF7C4FF34BF012000205DF808FB00BF50
:103C70004FEA410212F5001215D211D56FF4787394
:103C8000B3EB625212D94FEAC12343F0004343EA37
:103C9000505311F0004F23FA02F018BF4042704712
:103CA0004FF00000704750EA013005D111F000409C
:103CB00008BF6FF0004070474FF00000704700BF32
:103CC00053B94AB9002908BF00281CBF4FF0FF3183
:103CD0004FF0FF3000F03CB882B0EC462DE90050C8
:103CE00000F01EF8DDF804E002B00CBC704700BF25
:103CF0002DE9F041069C154606460F46984600F011
:103D000029F805FB01F300FB0838A5FB0023B21AD4
:103D1000434467EB0303C4E90023BDE8F08100BF1F
:103D20002DE9F041069C904606460F461D4600F0E0
:103D30005FF900FB05F5A0FB082308FB0155B21A4B
:103D40002B4467EB0303C4E90023BDE8F08100BF07
:103D5000704700BF00292DE9F043C0F2A68000267D
:103D6000002BC0F29C80884694469E461546044629
:103D70000F46002B3DD18A4259D9B2FA82F33BB1AA
:103D8000C3F120029F4020FA02F29D4017439C405D
:103D9000290C220CB7FBF1FEA8B201FB1E7742EA08
:103DA000074700FB0EF3BB420AD97F190EF1FF3221
:103DB00080F00581BB4240F20281AEF1020E2F4439
:103DC000FF1AA4B2B7FBF1F301FB137744EA0747EC
:103DD00000FB03F0B84208D97F1903F1FF3280F0ED
:103DE000F080B84240F2ED80023B43EA0E430022ED
:103DF00003E08B420FD900221346341C18BF012464
:103E000060424FF0000565EB4501584051400019F4
:103E10006941BDE8F083B3FA83F2002A40F086805E
:103E20008B4202D3844500F2DB800123E5E712B91F
:103E30000123B3FBF2F5B5FA85F000283BD1781BDE
:103E40004FEA154E1FFA85FC0122B0FBFEF8210C4B
:103E50000EFB180741EA07470CFB08F3BB4207D9E2
:103E60007F1908F1FF3102D2BB4200F2BD808846C3
:103E7000FF1AA4B2B7FBFEF30EFB137744EA074721
:103E80000CFB03FCBC4507D97F1903F1FF3102D2BB
:103E9000BC4500F2A7800B4643EA0843ADE7524217
:103EA0006FEA060663EB43035DE7404261EB4101C5
:103EB0004FF0FF3654E7C0F1200224FA02F107FA6E
:103EC00000F385404FEA154ED7401943B7FBFEF289
:103ED0000B0C0EFB12771FFA85FC43EA07430CFB21
:103EE00002F79F4204FA00F407D95B1902F1FF3090
:103EF00074D29F4272D9023A2B44DF1B89B2B7FBBE
:103F0000FEF80EFB187341EA03430CFB08F79F42CF
:103F100008D95B1908F1FF315CD29F425AD9A8F148
:103F200002082B44D81B48EA02428EE7C2F1200364
:103F30002CFA03F10EFA02FE20FA03F741EA0E0E04
:103F400008FA02F028FA03F14FEA1E453843B1FBA4
:103F5000F5F8030C05FB18111FFA8EF743EA01412F
:103F600007FB08F38B420CFA02FC09D911EB0E0196
:103F700008F1FF3930D28B422ED9A8F102087144E2
:103F8000C91A80B2B1FBF5F305FB131140EA0141F8
:103F900007FB03F78F4208D911EB0E0103F1FF3045
:103FA00016D28F4214D9023B714443EA0843C91B1D
:103FB000A3FB0C89494509D305D000221DE796468D
:103FC000FEE6134611E794404445F6D2013BF4E780
:103FD0000346EAE78846A5E7C846D1E702468CE7EC
:103FE00013460AE7023B57E7A8F102082F443FE7D0
:103FF0002DE9F041002B44D18A42154604464FD9A1
:10400000B2FA82F70E464FB1C7F12003B94020FA49
:1040100003F602FA07F50E4300FA07F44FEA154ECD
:10402000230CB6FBFEF0AFB20EFB106143EA014376
:1040300007FB00F1994209D95B1900F1FF3280F0CA
:10404000EC80994240F2E98002382B445A1AA4B21B
:10405000B2FBFEF30EFB132244EA024207FB03F716
:10406000974208D9521903F1FF3180F0D880974266
:1040700040F2D580023B43EA004000263146BDE8CD
:10408000F0818B4247D8B3FA83F6002E48D18B4299
:1040900002D3824200F2CD8001203146BDE8F0819A
:1040A00012B90125B5FBF2F5B5FA85F8B8F1000FA4
:1040B00077D14A1B4FEA154EAFB20126B2FBFEF094
:1040C000230C0EFB102143EA014107FB00F38B4256
:1040D00007D9491900F1FF3202D28B4200F2BA80AF
:1040E0001046C91AA4B2B1FBFEF30EFB131144EA49
:1040F000014407FB03F7A74208D9641903F1FF3213
:1041000080F08F80A74240F28C80023B43EA00405F
:104110003146BDE8F081002630463146BDE8F081E9
:10412000C6F1200422FA04F5B3402B4320FA04FC24
:1041300001FA06F721FA04F54FEA134E4CEA070795
:10414000B5FBFEF8390C0EFB18551FFA83FC41EA4B
:1041500005450CFB08F1A94202FA06F204D9ED1854
:1041600008F1FF3467D3A0466D1ABFB2B5FBFEF469
:104170000EFB145547EA05410CFB04FC8C4504D9A1
:10418000C91804F1FF355CD32C4644EA0844CCEB53
:104190000101A4FB0223994248D344D020460026C3
:1041A0006CE7C8F1200401FA08F305FA08F520FAD3
:1041B00004F7E1404FEA154E1F43B1FBFEF63A0CFF
:1041C0000EFB16111FFA85FC42EA01430CFB06F2B6
:1041D0009A4200FA08F407D95B1906F1FF3137D289
:1041E0009A4235D9023E2B449B1ABFB2B3FBFEF074
:1041F0000EFB103347EA03430CFB00F1994207D949
:104200005B1900F1FF3221D299421FD902382B44A9
:104210005A1A40EA0646674650E7104616E70B462C
:1042200029E7134672E7B0409042B7D2601E0026DD
:1042300024E7304622E7A94295D9A8F102081D4497
:1042400092E78C45A0D9023C19449EE71046DFE76F
:104250000E46C9E70238294443E700BF08B5FBF71B
:10426000F9FF044B1B680021986800F043F9FBF745
:1042700097FF00BF70050020002103E00B4B5B5847
:10428000435004310A480B4B42189A42F6D30A4A6B
:1042900002E0002342F8043B084B9A42F9D3FCF7B2
:1042A0006BF800F0DBF8FFF7D9FF704748A1000872
:1042B00000000020040A0020040A0020CC1900207D
:1042C000FEE7000010B52DED028B2A4C8AB0F0EE0F
:1042D000408A00F053F894F900300133B0EE408A80
:1042E00009D0B0EE680A00F09DF820B1F5EEC08A62
:1042F000F1EE10FA05D4B0EE480A0AB0BDEC028B1C
:1043000010BD01231C4A009318EE900A002301926D
:104310000893FEF761FF2478CDE90401CDE902019D
:104320009CB900220023CDE90623684600F078F806
:10433000A8B1089BC3B9DDE90601FFF7B3F900EEA8
:10434000100A0AB0BDEC028B10BD0020002102460D
:104350000B46FFF7BFF8022CCDE90601E5D105F0C9
:104360005BFD21230360E4E705F056FD089B036035
:10437000E1E700BF40010020F89E000810EE103A6F
:1043800023F00042B2F1FF4F70B430D26AB3002B79
:104390003DDBB2F5000F4FEAE3512CD3A1F17F02D0
:1043A000C3F31603D10743F4000348BF5B000024A6
:1043B00056105B00254619214FF08072A8189842CC
:1043C00002DC1B1A8518144401394FEA43034FEAF3
:1043D0005202F3D113B104F001031C44641004F140
:1043E0007C5404EBC65300EE103A70BC7047A0EE4C
:1043F000000A70BC704713F400020DD15B00180274
:1044000002F10102FAD5C2F101021144C6E730EE11
:10441000400A80EE000AE8E701221144BEE700BF2F
:104420000020704710EE103A33F0004001D1022016
:104430007047A0F50003B3F1FE4F01D2042070478E
:10444000054B421E9A4201D803207047A0F1FF405D
:10445000B0FA80F040097047FEFF7F0070B50F4E44
:104460000F4D761BB61018BF002405D0013455F847
:10447000043B9847A642F9D10A4E0B4D761BFBF739
:1044800049FFB61018BF002406D0013455F8043B8C
:104490009847A642F9D170BD70BD00BF48A1000881
:1044A00048A1000848A1000848A100080EB400B5C2
:1044B00082B003AB816853F8042B019300F0A0F89D
:1044C00002B05DF804EB03B0704700BF0FB400B555
:1044D000074983B004AB086853F8042B8168019343
:1044E00000F08EF803B05DF804EB04B0704700BF35
:1044F0007005002000290CBF022200224FF48063C7
:1045000000F000B82DE9F0413A4C26680D4604460B
:1045100090461F4616B1B36B002B3CD0B8F1020F8A
:104520002FD8002F2DDB2146304602F0BBFBA1899E
:1045300000236360A3610B0627D421F0830189B2B5
:10454000B8F1020FA1812AD0002D36D0B8F1010FA9
:1045500011D089B201F00800274BF36380B22560C7
:104560002561676178B111F0030F18BF0027A760BC
:104570000020BDE8F08141F001017B42A181A361EF
:10458000E7E74FF0FF30BDE8F0812169304602F0E7
:1045900009FDA189D1E7304602F094FCBEE7002076
:1045A00004F1430341F0020100250122A181A5602D
:1045B000236023616261BDE8F081002F08BF4FF4E2
:1045C0008067384602F0C8FE054628B1A18941F04F
:1045D000800189B2A181B9E74FF4806002F0BCFE8E
:1045E000054618B9A1894FF0FF30D9E74FF480672D
:1045F000ECE700BF70050020FD6C00080000000023
:104600002DE9F04FBDB01C4689460492074602F0E2
:1046100023FE03681193184603F0BAFE0894129023
:104620001FB1BB6B002B00F0F380B9F80C2093B2E4
:104630009E040AD4D9F8641042F4005321F40051C6
:10464000A9F80C30C9F864109BB21D0740F1AA808C
:10465000D9F81020002A00F0A58003F01A030A2BD5
:1046600000F0AC809FED6E7B00238DED0E7B0D93F3
:10467000219320931093139305932CAB1F931C4607
:10468000B846049D2B78002B00F0C680252B02D164
:10469000C2E0252B03D015F8013F002BF9D1049B74
:1046A000EE1A7EB1209B219A049921600133324495
:1046B000072B66602192209300F393800834059BBA
:1046C000334405932B78002B00F093800023691C62
:1046D0004FF0FF3A6D788DF85F301A4606930293DB
:1046E00056464B1CA5F12001582900F2CD83DFE886
:1046F00011F05C02CB03CB030203CB03CB03CB0350
:10470000CB03CB03CB030903D202CB03F801530342
:10471000CB03D602DD02DD02DD02DD02DD02DD02B9
:10472000DD02DD02DD02CB03CB03CB03CB03CB03E6
:10473000CB03CB03CB03CB03CB0371029302CB039D
:104740009302CB03CB03CB03CB03CB02CB03CB0333
:104750006E03CB03CB03CB03CB03CB03B503CB035C
:10476000CB038B03CB03CB03CB03CB03CB03CB0319
:10477000CB03CB03CB03CB03A0031703930293021A
:10478000930230031703CB03CB033703CB0341035F
:10479000FF01EC026302CB031102CB039B00CB03AE
:1047A000CB0336023846494601F086F9A0B9B9F87C
:1047B0000C3003F01A030A2B7FF454AFB9F90E3012
:1047C000002BFFF64FAF38464946049A234601F0C6
:1047D00037F93DB0BDE8F08F4FF0FF303DB0BDE898
:1047E000F08F404649461FAA03F03CFE40B92CAC6E
:1047F00065E7219B23B1404649461FAA03F032FEDC
:10480000B9F80C305A06E7D405983DB0BDE8F08FF2
:10481000384602F057FB08E7049D53E7AFF30080EA
:1048200000000000000000000493029BB2469E06B8
:1048300040F11E83089F073727F0070303F10802A2
:10484000D3E90067089201234FF0000C8DF85FC098
:10485000CDF82CA0BAF1000F03DB029A22F08002FF
:10486000029256EA070240F01F83BAF1000F00F0EF
:104870001C84012B00F02083022B00F052842CA911
:10488000F20842EA4772F80806F0070307461646A0
:10489000303356EA070201F8013DF1D1029A0A913C
:1048A000D00700F1F9842CAB5B1A0793079A924565
:1048B0005346B8BF1346039300230C93BCF1000F7B
:1048C00002D0039B01330393029B13F0020309936D
:1048D00002D0039B02330393029B13F0840640F043
:1048E000E082069B039AC2EB030ABAF1000F40F381
:1048F000D882BAF1100F2199209AB34FC8BF4FF058
:10490000100B07DC1EE0AAF1100ABAF1100F04F137
:10491000080417DD01321031072A2191209284E822
:104920008008F0DD404649461FAA03F09BFD0028A1
:104930007FF466AFAAF1100ABAF1100F2199209AFC
:104940002CACE7DC01320AEB010B072ACDF884B06E
:10495000209284E8800400F34A849DF85FC0083404
:10496000BCF1000F0FD0209B01330BF1010B0DF1B7
:104970005F010122072BCDF884B0209384E8060064
:1049800000F3B1830834099B73B1209B01330BF111
:10499000020B18A90222072BCDF884B0209384E8DB
:1049A000060000F3AC830834802E00F0F0820B9BED
:1049B000079AC2EB030ABAF1000F32DDBAF1100F09
:1049C000209A824F22DD10265B4606E0AAF1100AEB
:1049D000BAF1100F04F1080417DD01321033072A71
:1049E0002193209227606660F0DD404649461FAA69
:1049F00003F038FD00287FF403AFAAF1100ABAF1E2
:104A0000100F219B209A2CACE7DC9B460132D3444B
:104A1000072ACDF884B0209284E8800400F35783FD
:104A20000834029BDB0500F15B82209B07990A9A00
:104A3000226001338B44072BCDF884B06160209352
:104A400000F31D830834029B59073AD5069B039A4D
:104A50009D1A002D35DD102D209B5B4F1EDD10268D
:104A60005A4604E0103D102D04F1080415DD013311
:104A70001032072B2192209327606660F2DD4046BA
:104A800049461FAA03F0EEFC00287FF4B9AE103DA2
:104A9000102D219A209B2CACE9DC93460133AB44CA
:104AA000072BCDF884B020932760656009DD404670
:104AB00049461FAA03F0D6FC00287FF4A1AEDDF81A
:104AC00084B0059B039A06998A42ACBF9B185B1879
:104AD0000593BBF1000F40F0DE82002320932CAC45
:104AE000CFE5194602981D7840F004000290F8E5E1
:104AF0000493029B13F02003B24600F07381089FD9
:104B0000073727F0070303F10802D3E9006708928B
:104B1000002399E6089A049313680A934FF0000B58
:104B20008DF85FB0171D002B00F05E86002E0A98EE
:104B3000C0F212865946324602F0B0FE002800F05C
:104B40008F860A9BCDF82CB0C31A0793089723EAE7
:104B5000E3730393CDF830B09DF85FC0AEE60493E5
:104B60001B4B1093029B8DF85F209906B24640F1D3
:104B70005581089F073727F00703D3E9006703F142
:104B800008020892029BDB0740F1E48256EA070321
:104B900000F0E082029A8DF86150302342F0020268
:104BA0008DF86030029202234EE61D781946002AE5
:104BB0007FF497AD202294E5029941F02001029103
:104BC0001D7819468DE500BF5C9F0008089F00080E
:104BD0003C9F00080493029B8DF85F2043F0100374
:104BE0000293029B9806B24640F1A280089F0737C5
:104BF00027F00707D7E9002307F1080108911646B7
:104C00001F46002A73F10003C0F21C849DF85FC0A8
:104C1000CDF82CA001231DE60493029B089F8DF87C
:104C20005F201B07B246B34607F1070740F19B849C
:104C300027F0070393ED007B8DED0E7B03F1080257
:104C400008929DED0E0B03F031FB012840F0088423
:104C5000DDE90E0100220023FEF7E2FF002840F00C
:104C6000EC859DF85FC0029E994A9A4B0321002073
:104C700026F08006472DD8BF1A4603910B90029666
:104C80000A9207910C9019E6029941F008010291ED
:104C90001D78194625E51D7819462B2221E5029934
:104CA00041F0800102911D7819461AE5A5F1300006
:104CB000002113F8015B01EB810100EB4101A5F13B
:104CC00030000928F5D906910CE5089904933023A2
:104CD000029A8DF860300B460433782542F00202C8
:104CE00008937D4B1093B24602920E688DF8615086
:104CF00000270223A8E5029941F0010102911D78E5
:104D00001946EEE4089D29680691084600282946C0
:104D100001F10401C0F2EE8408911D781946E0E427
:104D20000493029B8DF85F209806B2463FF55EAF74
:104D3000029BD90600F19B82029B5A0640F19782A2
:104D40000899B1F900600431F71732463B460891E3
:104D500057E7029941F0400102911D781946C0E4DD
:104D60001D7802996C2D00F0BE8441F01001029173
:104D70001946B6E40493029B8DF85F209A0640F131
:104D8000FD83089A05991368CF17084604323946FF
:104D90000892C3E9000174E41D782A2D03F1010192
:104DA00000F02A86A5F1300009280B464FF00006D6
:104DB0003FF698AC13F8015B06EB860600EB46065F
:104DC000A5F130000928F5D946EAE6768AE404938D
:104DD000029B43F010030293029B13F02003B246A0
:104DE0007FF48DAE029A12F0100240F03882029BDE
:104DF00013F0400300F03382089913460A46043248
:104E00000E88089200271FE50493344B1093029BF1
:104E10008DF85F209906B2463FF5ABAE029BDA06ED
:104E200040F1D183089A134604331668089300278B
:104E3000A8E6089904930A688DF8882000230122C7
:104E400004319C46039208918DF85F3022ABCDF877
:104E50002CC0CDF830C007920A9335E50493029B2D
:104E600043F010030293029BB2469E063FF5E2AC6C
:104E7000029BD80640F19983089A134604321E68B3
:104E8000089201230027DFE404938DF85F20002DB2
:104E90003FF4AFAC002301229C4603928DF888506A
:104EA000D2E7DDF884B05BE5012B7FF4E5AC002FA1
:104EB00008BF0A2E80F0FF810DF1F00B30360BF8A1
:104EC000416D2CABCBEB03030793CDF828B0EDE499
:104ED0001C9F0008189F00083C9F0008289F00089E
:104EE000652D40F38A80DDE90E0100220023FEF7E4
:104EF0008DFE002800F03181209BAE4A22600133F4
:104F00000BF1010B0122072BCDF884B020936260D6
:104F100000F372830834199B0D9A934203DB029BC2
:104F2000DF077FF590AD209B1299119A2260013323
:104F30008B44072BCDF884B06160209300F3E183AC
:104F400008340D9B5D1E002D7FF77DAD102D209B3D
:104F5000994F40F3968110265A4604E00834103DDC
:104F6000102D40F38D8101331032072B21922093B5
:104F700027606660F2DD404649461FAA03F072FAD8
:104F800000287FF43DAC219A209B2CACE7E7069BE0
:104F9000039A9E1A002E7FF70AAD102E209A864F94
:104FA0001FDD4FF0100A5B4604E0103E102E04F1A6
:104FB000080415DD01321033072A2193209284E87A
:104FC0008004F2DD404649461FAA03F04BFA002850
:104FD0007FF416AC103E102E219B209A2CACE9DCFD
:104FE0009B460132B344072ACDF884B02092276053
:104FF000666000F31A820834D9E40D9B209D012BD2
:1050000040F3D5810A9B236001350BF10106012392
:10501000072D21962095636000F3E5810834129AEC
:10502000119B236001351644072D2196209562605F
:1050300000F3EF8108340023DDE90E010022FEF7C2
:10504000E5FD0D9B002840F0E1800A9A013B013507
:1050500001321E44072D209521962260636000F3E3
:10506000B6810834139A6260013506EB020B1BAB64
:10507000072DCDF884B0209523607FF7E3AC404640
:1050800049461FAA03F0EEF900287FF4B9ABDDF81A
:1050900084B02CACD7E4404649461FAA03F0E2F99D
:1050A00000283FF41AADFFF7ABBB002B33D1029BB6
:1050B000DA0730D50DF1F00B30230BF8413D2CAB66
:1050C000CBEB03030793CDF828B0FFF7EFBB4046C7
:1050D00049461FAA03F0C6F900287FF491ABDDF81A
:1050E00084B02CAC9DE4404649461FAA03F0BAF9AF
:1050F00000287FF485ABDDF884B02CAC43E4404657
:1051000049461FAA03F0AEF900287FF479ABDDF819
:1051100084B02CAC48E42CABCDF81CA00A93FFF76C
:10512000C5BB10980DF1B00B330906F00F0143EA2F
:1051300007733A091E461746435C0BF8013D56EAD1
:105140000703F1D15A462CAB9B1ACDF828B0079330
:10515000FFF7ACBB0223FFF777BB199D002D40F38F
:1051600057820D9A0C998A421346A8BF0B461D46DA
:105170000A99002D01EB020A0BDD209B216001330F
:10518000AB44072BCDF884B06560209300F309830E
:1051900008340C9B002DA8BF5B1B002B1D4640F361
:1051A000B080102D209B044F40F31A8210265A46DF
:1051B00009E000BF589F0008089F00080834103D10
:1051C000102D40F30C8201331032072B21922093D3
:1051D00027606660F2DD404649461FAA03F042F9A7
:1051E00000287FF40DAB219A209B2CACE7E74046CA
:1051F00049461FAA03F036F900287FF401AB9DF859
:105200005FC0DDF884B02CACFFF7AABB03F1FF3A16
:10521000BAF1000F7FF726AFBAF1100F8F4FC8BF5A
:105220004FF0100B07DCEAE00834AAF1100ABAF1DB
:10523000100F40F3E48001351036072D219620959C
:1052400084E88008F0DD404649461FAA03F00AF9C9
:1052500000287FF4D5AA219E209D2CACE5E7089973
:105260000A4604320E6808920027FFF7EDBA089A42
:10527000166813460433F717089332463B46C0E4DA
:1052800093460133AB44072BCDF884B020932760BD
:1052900065607FF7D7ABF2E6302B00F03E820A9BC9
:1052A000013B1A462CA80A93821A3023079201F870
:1052B000013CFFF7FBBA0DF1B00BCDF80CC0304646
:1052C00039460A220023FEF7FBFC303230463946CD
:1052D0000BF8012D00230A22FEF7F2FC06460F46CA
:1052E00056EA0703EBD1DDF80CC02BE740464946F0
:1052F0001FAA03F0B7F800287FF482AADDF884B073
:105300002CAC0A9A0C99199B0A4416460D9A9342A2
:105310003EDB029AD5073BD40D9AC6EB0A05D31A99
:105320009D42A8BF1D46002D2F460BDD209A26600A
:105330000132AB44072ACDF884B06560209200F3B7
:1053400066820834002FACBFDD1B1D46002D7FF7A1
:105350007AAB102D209B414F93DD10265A4603E077
:105360000834103D102D8BDD01331032072B2192B4
:10537000209327606660F3DD404649461FAA03F08C
:1053800071F800287FF43CAA219A209B2CACE8E716
:10539000209A12981199216001328344072ACDF88E
:1053A00084B06060209200F308820834B4E7029B66
:1053B000D8073FF527AE0A9B236001350BF10106A4
:1053C0000123072D2196209563607FF74AAE404662
:1053D00049461FAA03F046F800287FF411AA219E2F
:1053E000209D2CAC3EE6404649461FAA03F03AF801
:1053F00000287FF405AA219E209D2CAC0FE60135E4
:105400005644072D2196209584E880047FF729AE25
:10541000DDE7404649461FAA03F024F800287FF440
:10542000EFA9219E209D2CAC05E6404649461FAAC7
:1054300003F018F800287FF4E3A9DDF884B02CAC61
:10544000FFF7B5BA4FF02D0C764267EB47078DF8A2
:105450005FC0CDF82CA00123FFF7FCB9089F00081E
:105460009DED0E0B02F022FF002800F0168125F0C2
:105470002003BAF1FF3F039300F06082472B05D170
:10548000BAF1000F14BFD3464FF0010B0F9B029AE5
:10549000002B42F480720992C0F260829DED0E7B77
:1054A0008DED147B4FF0000A662D00F05E81462DD5
:1054B00000F05B81039B452B0CBF0BF101075F469E
:1054C0001AAA1DAB8DE80C0040469DED140B02217D
:1054D0003A4619AB00F0E8FB672D0A9002D0472D41
:1054E00040F05181029BDB0740F141820A9BDE19AB
:1054F000DDE9140100220023FEF788FB002840F0BC
:10550000AD811D9B9E4206D930215A1C1D921970F7
:105510001D9B9E42F9D80A9A9B1A0D93039B472B19
:10552000199B00F08381652D40F3A681662D0C93B5
:1055300000F01F820D9B0C9A934200F30282029BA3
:10554000D90700F1398222EAE2730792BAF1000F1B
:1055500040F079810393099B0293CDF82CA09DF82C
:105560005FC0FFF7ABB927F0070797ED007B07F1A6
:1055700008038DED0E7B0893FFF763BB029BDB06F0
:105580000BD4029B5F0608D5089A13680432089270
:10559000BDF814201A80FFF774B8089A1368043213
:1055A0000892059A1A60FFF76CB8029B089A13F0EC
:1055B000400F13463FF462AC1688043200270123E3
:1055C0000892FFF741B9029B089A13F0400F134667
:1055D00076D00433168808930027FFF7D3BA934692
:1055E0000133AB44072BCDF884B02093276065606E
:1055F0003FF77CAE083484E6404649461FAA02F0D5
:1056000031FF00287FF4FCA8DDF884B02CAC82E4E4
:10561000209BB04A226001330BF1010B0122072BC2
:10562000CDF884B02093626050DC08342DB90D9B16
:105630001BB9029BDE077FF506AA209B1299119ADF
:10564000226001330BEB0102072B21926160209352
:1056500000F3678108346D42002D6FDD102D9E4FE1
:10566000C8BF102605DCB5E00834103D102D40F30E
:10567000B18001331032072B21922093276066609E
:10568000F2DD404649461FAA02F0ECFE00287FF4F6
:10569000B7A8219A209B2CACE7E7029E8F4A904B3B
:1056A0009DF85FC00B90032126F08006472DD8BFE0
:1056B0001A46039102960C900A920791FFF7FEB8E2
:1056C0000433166808930027FFF75CBA4046494642
:1056D0001FAA02F0C7FE00287FF492A8199DDDF8EA
:1056E00084B02CACA2E741F0200102915D78591CF6
:1056F000FEF7F7BF06980891404206901946FFF75B
:10570000F1B9404649461FAA02F0ACFE00287FF4DA
:1057100077A8DDF884B02CAC13E40A9A2CAB9B1A62
:105720000793FFF7C3B8404649461FAA02F09AFE06
:1057300000287FF465A8219A209B2CAC0D9860600E
:10574000013302EB000B072B0A9ACDF884B02093AB
:1057500022607FF777A992E4CDF82CB002F018FE12
:10576000089707900346FFF7F2B91AAA1DAB8DE818
:105770000C0040469DED140B03215A4619AB00F076
:1057800093FA5F460A900A9BDE19039B462B7FF42F
:10579000AFAE0A9B1B78302B00F00081199F3E446E
:1057A000A6E6404649461FAA02F05CFE00287FF4A8
:1057B00027A8DDF884B02CACEBE4404649461FAA8C
:1057C00002F050FE00287FF41BA8199BDDF884B07E
:1057D0002CACA1E501332A44072B219220932760AA
:1057E0006560A0DC0834A9E7062E334628BF0623EF
:1057F000079323EAE373DDF828C00393394B089736
:10580000CDF82CC0CDF830C00A93FFF757B840460A
:1058100049461FAA02F026FE00287EF4F1AF199B2C
:105820000D9ADDF884B0D31A2CAC8BE5DF1C22DB9B
:105830009B4520DB0C9367257CE64FF02D0C8DF803
:105840005FC0FFF710BA0393099B02934FF02D0C32
:1058500000238DF85FC00B93FFF733B833465AE649
:1058600026EAE6730B9008970C909DF85FC00393AF
:105870000796FFF723B8023D013B002B1993BABFEF
:105880005B422D222B22092B8DF86C508DF86D2058
:1058900040F398800DF17B063046134A82FB0321CA
:1058A000DA17C2EBA10202EB8201A3EB410303F181
:1058B0003001092A134600F8011DEEDC02463033A0
:1058C000D9B202F8011D964240F2A9800DF16E0294
:1058D00003460DE0589F0008089F0008249F000819
:1058E000209F0008509F00086766666613F8011B3A
:1058F00002F8011BB342F9D11FAB1B1A0DF16E0266
:1059000013441BAA9B1A0D9A1393012A134407935D
:1059100069DD079B0022013307930C9223EAE373AE
:1059200014E6404649461FAA02F09CFD00287EF47A
:1059300067AF199D219A209B2CAC8CE64FF0060B8B
:10594000A4E50C9B002BD8BFC3F102060D9BC8BF7A
:105950000126F318079323EAE373F7E5DDE90E0167
:1059600001F10043149015934FF02D0A9CE51D9B07
:10597000D1E5002B2EDDBBF1000F07D1029BDE0726
:1059800004D40C9A079222EAE273DFE50C9B0BF138
:1059900001063344079323EAE373D7E5DDE91401F5
:1059A00000220023FEF732F900287FF4F7AEC7F19A
:1059B000010719973E449BE50C9B0133079323EAAB
:1059C000E373C3E5303330228DF86F308DF86E20ED
:1059D0001CAB96E7BBF1000F1BD1029BD80718D474
:1059E00001230793B2E5029B13F0010391D10C93BD
:1059F000079B23EAE373A9E5089D2E682846043037
:105A0000002E5D780890BEF66CAE4FF0FF36FEF7C4
:105A100068BE0BF10203079323EAE37396E50DF1E9
:105A20006E036EE7AFF3008030B4044C0D461346AE
:105A300001462A46206830BCFEF7E2BD7005002012
:105A40002DE9F0420C46ADF58D6DB1F80CE0E7693B
:105A5000496EB4F80E9019911AAD4FF480662EF08D
:105A6000020E4FF0000C07976946676A009504958F
:105A700002960596ADF80CE0ADF80E900997CDF8BA
:105A800018C00646FEF7BCFD051E07DB304669461A
:105A900001F008F9002818BF4FF0FF35BDF80C30B1
:105AA0005B0603D5A38943F04003A38128460DF587
:105AB0008D6DBDE8F08200BF38B52F4B1B680546E1
:105AC0000C4613B19A6B002A36D0A28993B21807FC
:105AD0000CD52069A8B113F001021ED06369002221
:105AE0005B42A361A260F0B1002038BDD9063BD56E
